:040000004EEF00F0CF
:100008005582E9CF20F0EACF21F0E1CF22F0E2CF0C
:1000180023F0D9CF24F0DACF25F0F3CF26F0F4CFB0
:1000280027F0F6CF28F0F7CF29F0F8CF2AF0F5CF50
:100038002BF0F2AC22EF00F024EF00F034EF00F0E8
:10004800A3A429EF00F02BEF00F034EF00F0A4A4F4
:1000580030EF00F032EF00F034EF00F090EC07F0F2
:100068002BC0F5FF2AC0F8FF29C0F7FF28C0F6FF0C
:1000780027C0F4FF26C0F3FF25C0DAFF24C0D9FF4C
:1000880023C0E2FF22C0E1FF21C0EAFF20C0E9FF50
:08009800559211007FEF1AF0F0
:1008000000000000000000000000000000000000E8
:1008100000000000000000000000000000000000D8
:1008200000CC086C08A00829080902430002010056
:10083000C032090400000102020100052400100179
:100840000424020205240600010524010001070515
:1008500081030A000209040100020A0000000705E2
:1008600002024000000705820240000034034D00F0
:100870006900630072006F00630068006900700027
:10088000200054006500630068006E006F006C007B
:100890006F0067007900200049006E0063002E00A1
:1008A0001A03500072006F0064007500630074004A
:1008B00020004E0061006D00650012010002020080
:1008C0000008D8040A000001010200010403090421
:0F08D000636F756E7465723A2025640D0A00001F
:1008E00004013205D8A477EF04F079EF04F095EF16
:1008F00004F030511F0B0009D8A481EF04F083EFFE
:1009000004F095EF04F00001D78F030E04013119B4
:10091000D8A48DEF04F08FEF04F093EF04F0010EF4
:100920004D6E95EF04F0000E4D6E3251D8A49BEF42
:1009300004F09DEF04F01DEF06F030511F0B020A8A
:10094000D8A4A5EF04F0A7EF04F01DEF06F0345192
:100950000F0B0009D8B4AFEF04F0B1EF04F01DEFB6
:1009600006F034510F0B156E030E1560BAEF04F04C
:10097000BCEF04F01DEF06F0200E5018D8A4C3EF12
:1009800004F0C5EF04F01DEF06F00001D78F04015D
:1009900034BFCDEF04F0CFEF04F0ECEF04F03451AE
:1009A0000F0B156E1550020DE00EF324D96E000EDC
:1009B000F420DA6EDECF1AF0DDCF1BF034510F0BCE
:1009C000156E166AE60E1524D96E000E1620DA6E24
:1009D000DF50196E07EF05F034510F0B156E1550EF
:1009E000020DDA0EF324D96E000EF420DA6EDECF9B
:1009F0001AF0DDCF1BF034510F0B156E166AE90E9D
:100A00001524D96E000E1620DA6EDF50196E19B05B
:100A10000CEF05F00EEF05F016EF05F0FB0E1A14C3
:100A20001A6EFF0E1B141B6E1BEF05F0040E1A103E
:100A30001A6E1B501B6E34BF20EF05F022EF05F03D
:100A400033EF05F034510F0B156E1550020DE00E0B
:100A5000F324D96E000EF420DA6E1AC0DEFF1BC03C
:100A6000DDFF42EF05F034510F0B156E1550020DEE
:100A7000DA0EF324D96E000EF420DA6E1AC0DEFF0F
:100A80001BC0DDFF030E3119D8A449EF05F04BEF71
:100A900005F085EF05F01AC0D9FF1BC0DAFFDFAE05
:100AA00054EF05F056EF05F077EF05F034BF5BEF3C
:100AB00005F05DEF05F06BEF05F034510F0B156E8F
:100AC000166AE60E1524D96E000E1620DA6E0001A5
:100AD000DF8277EF05F034510F0B156E166AE90EC1
:100AE0001524D96E000E1620DA6E0001DF821AC0BE
:100AF000D9FF1BC0DAFF000EDB841AC0D9FF1BC070
:100B0000DAFF000EDB8E1DEF06F0040E1A181A6EC7
:100B10001B501B6E1AC0D9FF1BC0DAFFDFAE93EF6C
:100B200005F095EF05F0B1EF05F01AC0D9FF1BC035
:100B3000DAFF7F0EDF161AC0D9FF1BC0DAFF000EE6
:100B4000DB8C000E0E6E050E0D6E1AC00FF01BC072
:100B500010F0000E126E020E116EE2EC17F0B7EFFD
:100B600005F01AC0D9FF1BC0DAFF000EDB8C040EA3
:100B70001A181A6E1B501B6E19B2C1EF05F0C3EFA5
:100B800005F0CEEF05F01AC0D9FF1BC0DAFFDFAECB
:100B9000CCEF05F0CEEF05F006EF06F0040134BF10
:100BA000D4EF05F0D6EF05F0E4EF05F034510F0B6C
:100BB000156E166AE60E1524D96E000E1620DA6E32
:100BC0000001DF92F0EF05F034510F0B156E166A3D
:100BD000E90E1524D96E000E1620DA6E0001DF92A0
:100BE0001AC0D9FF1BC0DAFF3B0EDF16000E0E6ED7
:100BF000050E0D6E1AC00FF01BC010F0000E126E25
:100C0000020E116EE2EC17F00CEF06F01AC0D9FFDD
:100C10001BC0DAFF3B0EDF16040134510F0B156EBB
:100C2000166A6A0E1524176E0F0E1620186E17C05E
:100C3000D9FF18C0DAFFFE0EDF1612007DC095F056
:100C40007EC096F07FC097F080C098F081C099F088
:100C500082C09AF083C09BF084C09CF000019CBFCE
:100C600034EF06F037EF06F0010E38EF06F0000E15
:100C7000936F946B93519411D8B441EF06F043EF06
:100C800006F053EF06F09C1F9B1F9A1F991F981F99
:100C9000971F961F956D000E9623972398239923EF
:100CA0009A239B239C23EDBF58EF06F05AEF06F0E2
:100CB0005BEF06F0EE93EDBF68EF06F0ED5106E155
:100CC000EC05D8B066EF06F068EF06F06EEF06F0C0
:100CD000000E906F010E8F6F72EF06F0ECC08FF078
:100CE000EDC090F038C091F039C092F0935194115A
:100CF000D8A47DEF06F07FEF06F086EF06F0EEA5B4
:100D000084EF06F086EF06F089EF06F09107D8A091
:100D10009207000E9E6F1F0E9D6F000E0101516F16
:100D20000FEF07F09D07D8A09E07320E9D25D96EC4
:100D3000010E9E21DA6E95C060F096C061F097C0FA
:100D400062F098C063F099C064F09AC065F09BC0EF
:100D500066F09CC067F00A0E686F000E696F000EA7
:100D60006A6F000E6B6F000E6C6F000E6D6F000EE1
:100D70006E6F000E6F6F42EC0DF060C085F061C0C9
:100D800086F062C087F063C088F064C089F065C0F7
:100D90008AF066C08BF067C08CF085C072F087C0A7
:100DA00073F0C6EC19F000017251300FDF6E8F073F
:100DB000D8A090079107D8A0920795C060F096C080
:100DC00061F097C062F098C063F099C064F09AC077
:100DD00065F09BC066F09CC067F00A0E686F000E5D
:100DE000696F000E6A6F000E6B6F000E6C6F000E65
:100DF0006D6F000E6E6F000E6F6F4CEC0AF060C0EE
:100E000095F061C096F062C097F063C098F064C03E
:100E100099F065C09AF066C09BF067C09CF0000135
:100E20009EBF1BEF07F09E5108E19D05D8A01BEF68
:100E300007F01DEF07F04DEF07F095519611971150
:100E4000981199119A119B119C11D8A42AEF07F0BF
:100E50002CEF07F092EF06F090BF39EF07F09051BA
:100E600006E18F05D8B037EF07F039EF07F092EFC2
:100E700006F092BF44EF07F0925108E19105D8A027
:100E800044EF07F046EF07F04DEF07F0EEB34BEFFE
:100E900007F04DEF07F092EF06F093519411D8A4AC
:100EA00054EF07F056EF07F05DEF07F0EEA55BEFAC
:100EB00007F05DEF07F07BEF07F09D07D8A09E07D6
:100EC00093519411D8A467EF07F069EF07F06FEF23
:100ED00007F0000E8E6F2B0E8D6F73EF07F0000E74
:100EE0008E6F2D0E8D6F320E9D25D96E010E9E21B7
:100EF000DA6E8DC0DFFF7BC070F07CC071F0320E07
:100F00009D25726F010E9E21736F91C074F092C087
:100F100075F0C5EC15F070C07BF071C07CF012006C
:100F20005004D8A496EF07F098EF07F0A5EF07F06C
:100F300060BA9DEF07F09FEF07F0A5EF07F0000EF6
:100F4000656E64806488020E506E65A4AAEF07F097
:100F5000ACEF07F0B6EF07F064A4B1EF07F0B3EF22
:100F600007F0B6EF07F0659408EC1AF060A2BBEF4B
:100F700007F0BDEF07F0C0EF07F0A494A3EF08F06F
:100F800065A0C5EF07F0C7EF07F0D4EF07F064A046
:100F9000CCEF07F0CEEF07F0D4EF07F09BEC0EF0AC
:100FA000A384040E506E659065A8D9EF07F0DBEFBF
:100FB00007F0E4EF07F064A8E0EF07F0E2EF07F0D6
:100FC000E4EF07F098EC1AF065ACE9EF07F0EBEF0F
:100FD00007F016EF08F064ACF0EF07F0F2EF07F05F
:100FE00000EF08F0000E0E6E730E0D6E000E0F6E09
:100FF000000E106E000E126E010E116EE2EC17F074
:10100000659C65EC1AF04A50D8B409EF08F00BEF74
:1010100008F00CEF08F04A064A50D8A412EF08F086
:1010200014EF08F016EF08F071EC14F065AA1BEF4E
:1010300008F01DEF08F026EF08F064AA22EF08F090
:1010400024EF08F026EF08F0FBEC18F065A22BEF78
:1010500008F02DEF08F043EF08F064A232EF08F03B
:1010600034EF08F043EF08F07F0E0E6E0D68000EAF
:101070000F6E000E106E000E126E010E116EE2EC7D
:1010800017F0000E676E040E506049EF08F04BEF4A
:1010900008F04EEF08F0A494A3EF08F064A653EF15
:1010A00008F055EF08F0A2EF08F0000E1F6E65A6DD
:1010B0005CEF08F05EEF08F0A2EF08F061CF53F0AC
:1010C0005330E832E8320F0B4C6E659653B46BEF39
:1010D00008F06DEF08F077EF08F0E60E4C24D96EBB
:1010E000DA6A000EDA220001DF707FEF08F0E90E05
:1010F0004C24D96EDA6A000EDA220001DF704C50FF
:10110000D8A485EF08F087EF08F08BEF08F08EEC9D
:1011100016F099EF08F0000E0E6E720E0D6E530E63
:101120000F6E000E106E000E126E000E116EE2ECCD
:1011300017F01F2A030E1F64A0EF08F0A2EF08F0BB
:1011400057EF08F0A4941200A1C0D9FFA2C0DAFFA3
:10115000DECFF6FFDDCFF7FF0800F550250AD8A453
:10116000B4EF08F0B6EF08F063EF09F0A1C0D9FFC3
:10117000A2C0DAFFDE2A000EDD22000E396E000E5C
:10118000386E38C0EEF039C0EFF00001EC69ED695F
:10119000A1C0D9FFA2C0DAFFDECFF6FFDDCFF7FF97
:1011A0000800F550640AD8B4D8EF08F0DAEF08F078
:1011B000ECEF08F0A1C0D9FFA2C0DAFFDECFF6FF46
:1011C000DDCFF7FF0800F550690AD8A4EAEF08F070
:1011D000ECEF08F02CEF09F0A1C0D9FFA2C0DAFFB4
:1011E000DE2A000EDD22A3C0D9FFA4C0DAFFDFCFC4
:1011F000A5F0020EDE26DFCFA6F0000EDD22A5C090
:10120000D9FFA6C0DAFFDECFA7F0DDCFA8F0000E31
:10121000A8BFFF0EA96FAA6FAB6FAC6FAD6FAE6FBB
:101220009FC07BF0A0C07CF0A7C07DF0A8C07EF07E
:10123000A9C07FF0AAC080F0ABC081F0ACC082F042
:10124000ADC083F0AEC084F01EEC06F07BC09FF012
:101250007CC0A0F07FEF09F0A1C0D9FFA2C0DAFFE7
:10126000DECFF6FFDDCFF7FF0800F550250AD8A442
:101270003CEF09F03EEF09F056EF09F0A1C0D9FFAD
:10128000A2C0DAFFDE2A000EDD22000E616F250EFD
:10129000606F9FC062F0A0C063F05FEC15F0000EBD
:1012A0000001A06F010E9F6F7FEF09F0A1C0D9FF71
:1012B000A2C0DAFFDE2A000EDD22000EA06F000EB3
:1012C0009F6F7FEF09F0A1C0D9FFA2C0DAFFDECF88
:1012D000F6FFDDCFF7FF0800F5500001606F616B8E
:1012E0009FC062F0A0C063F05FEC15F0A1C0D9FF11
:1012F000A2C0DAFFDE2A000EDD224FEF09F0120055
:10130000A3940001F051F111D8B489EF09F08BEFEB
:1013100009F099EF09F0F0C0D9FFF1C0DAFFDFAEB4
:1013200094EF09F096EF09F099EF09F0A3844BEFE1
:101330000AF0030E4318D8A4A0EF09F0A2EF09F0B9
:10134000A4EF09F0000E436E4350D8A4AAEF09F0B1
:10135000ACEF09F0AFEF09F0A3844BEF0AF0020EF7
:101360004318D8A4B6EF09F0B8EF09F0CBEF09F0B5
:10137000010E606F000E616F000E626F000E636FF2
:10138000020EE3EC0FF060C0F0F061C0F1F0030E6C
:10139000436E4AEF0AF04304D8A4D1EF09F0D3EF2B
:1013A00009F04AEF0AF0400EF365D9EF09F0DBEFE0
:1013B00009F0DFEF09F0400E6C6FE1EF09F0F3C0C8
:1013C0006CF06C51F35DF36F000E306E050E316EF4
:1013D0006CC06BF0F251D8A4F0EF09F0F2EF09F015
:1013E0001CEF0AF003EF0AF033C0D9FF34C0DAFF74
:1013F00030C0E1FF31C0E2FFDFCFE7FF304A312AE2
:10140000334A342A6B076B51D8A409EF0AF00BEF6B
:101410000AF0F4EF09F024EF0AF033C0D9FF34C02A
:10142000DAFF30C0E1FF31C0E2FFDFCFE7FF304A33
:10143000312A334A342A6B076B51D8A422EF0AF0C1
:1014400024EF0AF00DEF0AF0F351D8A42AEF0AF0C6
:101450002CEF0AF03BEF0AF0400E6C19D8A433EFE2
:101460000AF035EF0AF039EF0AF0020E436E3BEF57
:101470000AF0030E436E010E606F000E616F050EE1
:10148000626F6CC063F0020EE3EC0FF060C0F0F02E
:1014900061C0F1F0A3841200000E0001716F6FBFF4
:1014A00056EF0AF054EF0AF068EF0AF06F1F6E1F54
:1014B0006D1F6C1F6B1F6A1F691F686D000E69230B
:1014C0006A236B236C236D236E236F23010E716FD0
:1014D00067BF6FEF0AF06DEF0AF081EF0AF0671F48
:1014E000661F651F641F631F621F611F606D000E12
:1014F0006123622363236423652366236723010E2C
:10150000711B20EE72F0070EDE6AE806FDE26851FC
:1015100069116A116B116C116D116E116F11D8B4D4
:1015200094EF0AF096EF0AF0E8EF0AF0010E706F00
:10153000A4EF0AF0D890683769376A376B376C3791
:101540006D376E376F37702B6FAFA9EF0AF0ABEFC7
:101550000AF09AEF0AF0D8907237733774377537FC
:1015600076377737783779376851605D69516159D7
:101570006A5162596B5163596C5164596D51655987
:101580006E5166596F516759D8A0C9EF0AF0CBEF79
:101590000AF0DCEF0AF06851605F6951615B6A51E3
:1015A000625B6B51635B6C51645B6D51655B6E514B
:1015B000665B6F51675B7281D8906F336E336D33AA
:1015C0006C336B336A3369336833702FABEF0AF0D7
:1015D0007151D8B4EEEF0AF0F0EF0AF000EF0BF023
:1015E000791F781F771F761F751F741F731F726D09
:1015F000000E7323742375237623772378237923AE
:1016000072C060F073C061F074C062F075C063F0C6
:1016100076C064F077C065F078C066F079C067F096
:10162000120060C06AF061C06BF000016451651186
:10163000D8A41DEF0BF01FEF0BF021EF0BF0CCEF58
:101640000BF06AC0D9FF6BC0DAFF62C0DFFF6451E4
:101650006A25666F65516B21676FFF0E6625D96E2F
:10166000FF0E6721DA6E62C0DFFF655107E1030EEE
:10167000645DD8B03EEF0BF040EF0BF042EF0BF0A3
:10168000CCEF0BF020EE01F06A51D9266B51DA2233
:1016900062C0DFFF20EE02F06A51D9266B51DA22D8
:1016A00062C0DFFF64516A25666F65516B21676F09
:1016B000FE0E6625D96EFF0E6721DA6E62C0DFFF6F
:1016C00064516A25666F65516B21676FFD0E662553
:1016D000D96EFF0E6721DA6E62C0DFFF655107E148
:1016E000070E645DD8B077EF0BF079EF0BF07BEF6E
:1016F0000BF0CCEF0BF020EE03F06A51D9266B51C2
:10170000DA2262C0DFFF64516A25666F65516B2182
:10171000676FFC0E6625D96EFF0E6721DA6E62C018
:10172000DFFF655107E1090E645DD8B09AEF0BF059
:101730009CEF0BF09EEF0BF0CCEF0BF06AC066F065
:101740006BC067F0661F671F664B672B030E66153D
:10175000686F696B68516A2769516B236851645FD0
:101760006951655BFC0E6417FF0E6517C3EF0BF044
:101770006AC0D9FF6BC0DAFF62C0DFFF6407D8A080
:1017800065076A4B6B2B64516511D8A4CAEF0BF047
:10179000CCEF0BF0B8EF0BF0120001C00BF002C061
:1017A0000CF005500610D8A4D8EF0BF0DAEF0BF0D0
:1017B000DCEF0BF087EF0CF00BC0D9FF0CC0DAFFA9
:1017C00003C0DFFF05500B24076E06500C20086E87
:1017D000FF0E0724D96EFF0E0820DA6E03C0DFFF6C
:1017E000065007E1030E055CD8B0F9EF0BF0FBEFF4
:1017F0000BF0FDEF0BF087EF0CF020EE01F00B503B
:10180000D9260C50DA2203C0DFFF20EE02F00B5085
:10181000D9260C50DA2203C0DFFF05500B24076ED7
:1018200006500C20086EFE0E0724D96EFF0E08200D
:10183000DA6E03C0DFFF05500B24076E06500C2044
:10184000086EFD0E0724D96EFF0E0820DA6E03C065
:10185000DFFF065007E1070E055CD8B032EF0CF051
:1018600034EF0CF036EF0CF087EF0CF020EE03F0C5
:101870000B50D9260C50DA2203C0DFFF05500B2491
:10188000076E06500C20086EFC0E0724D96EFF0E62
:101890000820DA6E03C0DFFF065007E1090E055C81
:1018A000D8B055EF0CF057EF0CF059EF0CF087EF74
:1018B0000CF00BC007F00CC008F0071E081E074A0A
:1018C000082A030E0714096E0A6A09500B260A50EB
:1018D0000C220950055E0A50065AFC0E0516FF0E32
:1018E00006167EEF0CF00BC0D9FF0CC0DAFF03C068
:1018F000DFFF0506D8A006060B4A0C2A0550061085
:10190000D8A485EF0CF087EF0CF073EF0CF0120009
:10191000800E04013019D8A490EF0CF092EF0CF077
:1019200041EF0DF0C00E0001D76F27EF0DF0BA0E9A
:101930000001D46F080ED56F000ED96F120ED86F4C
:1019400041EF0DF03251D8A4A8EF0CF0AAEF0CF043
:10195000EBEF0CF03251020D270EF324F66E080E59
:10196000F420F76E0900F5CFD4F00A00F5CFD5F0DA
:10197000020E0001D425016E000ED521026E01C0B9
:10198000F6FF02C0F7FFF86A070EF76403D00800FD
:10199000F55005D0F6CFE9FFF7CFEAFFEF50000191
:1019A000D86F030ED425016E000ED521026E01C042
:1019B000F6FF02C0F7FFF86A070EF76403D00800CD
:1019C000F55005D0F6CFE9FFF7CFEAFFEF50000161
:1019D000D96F41EF0DF0000E0001D76F41EF0DF010
:1019E000030E3261F6EF0CF0F8EF0CF01DEF0DF086
:1019F0003251020D210EF324F66E080EF420F76E1C
:101A00000900F5CFD4F00A00F5CFD5F0D4C0F6FF29
:101A1000D5C0F7FFF86A070EF76403D00800F55049
:101A200005D0F6CFE9FFF7CFEAFFEF50016E015086
:101A30000001D86FD96B41EF0DF0000E0001D76F98
:101A400041EF0DF0000E0001D76F41EF0DF00401E2
:101A50003351016E026A0250000AD8B432EF0DF021
:101A600022EF0DF00150010AD8B497EF0CF0030AF1
:101A7000D8B4A2EF0CF0010AD8B4F0EF0CF022EFCA
:101A80000DF01200000E0001716F67BF4CEF0DF0FA
:101A90004AEF0DF05EEF0DF0671F661F651F641FB4
:101AA000631F621F611F606D000E61236223632349
:101AB0006423652366236723010E716F6FBF65EF93
:101AC0000DF063EF0DF075EF0DF06F1F6E1F6D1FC2
:101AD0006C1F6B1F6A1F691F686D000E69236A23E4
:101AE0006B236C236D236E236F23685169116A1178
:101AF0006B116C116D116E116F11D8B482EF0DF076
:101B000084EF0DF0CCEF0DF0010E706F92EF0DF041
:101B1000D890683769376A376B376C376D376E37EF
:101B20006F37702B6FAF97EF0DF099EF0DF088EFD7
:101B30000DF06851605D695161596A5162596B518C
:101B400063596C5164596D5165596E5166596F51A5
:101B50006759D8A0AEEF0DF0B0EF0DF0C0EF0DF06B
:101B60006851605F6951615B6A51625B6B51635B95
:101B70006C51645B6D51655B6E51665B6F51675B69
:101B8000D8906F336E336D336C336B336A33693394
:101B90006833702F99EF0DF07151D8B4D2EF0DF07A
:101BA000D4EF0DF0E4EF0DF0671F661F651F641F93
:101BB000631F621F611F606D000E61236223632338
:101BC000642365236623672360C060F061C061F011
:101BD00062C062F063C063F064C064F065C065F029
:101BE00066C066F067C067F01200A394000E676ECF
:101BF000000E656E000E6A6E6B0E0001606F0F0EB8
:101C0000616F000E636F000E626F000E656F020E53
:101C1000646F11EC0BF0160E626E9F0E666E7B0EFB
:101C2000646E000E00016C6F6C51040D000EF32405
:101C3000D96E040EF420DA6EDE6ADE6ADE6ADD6AD0
:101C40006C2B0B0E6C6527EF0EF029EF0EF014EFE6
:101C50000EF0608C000E636E6098609C6596000EBE
:101C6000D76F000ECF6F000ED16F000ED06F65B62C
:101C70003CEF0EF03EEF0EF02EEF0EF0010E486E30
:101C8000010E476E000E466E000E456E000EF56F9B
:101C9000000E6C6F6C51020DDA0EF324D96E000E3B
:101CA000F420DA6E000EDE6E000EDD6E6C51020D59
:101CB000E00EF324D96E000EF420DA6E000EDE6E14
:101CC000000EDD6EE90E6C25D96EDA6A000EDA229E
:101CD000000EDF6EE60E6C25D96EDA6A000EDA228F
:101CE000000EDF6E6C2B020E6C6579EF0EF07BEF51
:101CF0000EF04AEF0EF0080EDA6F040EDB6F160ED0
:101D00006A6E040E0401036F300E026F080E016F3D
:101D1000040E006F008F000E546E000E2C6E000E2D
:101D20002D6E000E2E6E000E2F6E000E0001F46F51
:101D3000000E506E1200A394000E676E000E656ECA
:101D4000000E6A6E6B0E016E0F0E026E000E046EB8
:101D5000000E036E000E066E020E056ECDEC0BF04B
:101D6000160E626E9F0E666E7B0E646E000E0D6E1A
:101D70000D50040D000EF324D96E040EF420DA6E1B
:101D8000DE6ADE6ADE6ADD6A0D2A0B0E0D64CBEFB9
:101D90000EF0CDEF0EF0B8EF0EF0608C000E636E1B
:101DA0006098609C6596000E0001D76F000ECF6FA3
:101DB000000ED16F000ED06F65B6E1EF0EF0E3EFCD
:101DC0000EF0D2EF0EF0010E486E010E476E000EBF
:101DD000466E000E456E000EF56F000E0D6E0D5036
:101DE000020DDA0EF324D96E000EF420DA6E000E26
:101DF000DE6E000EDD6E0D50020DE00EF324D96E86
:101E0000000EF420DA6E000EDE6E000EDD6EE90EBE
:101E10000D24D96EDA6A000EDA22000EDF6EE60EAD
:101E20000D24D96EDA6A000EDA22000EDF6E0D2A5A
:101E3000020E0D641EEF0FF020EF0FF0EFEF0EF02B
:101E4000080E0001DA6F040EDB6F160E6A6E040EC8
:101E50000401036F300E026F080E016F040E006F55
:101E6000008F000E546E000E2C6E000E2D6E000EB4
:101E70002E6E000E2F6E000E0001F46F000E506EDD
:101E8000120020EE01F04050D9264150DA22DF50F6
:101E9000026E02500001D05D000ED159D8B053EF50
:101EA0000FF055EF0FF057EF0FF0D0C002F00250D7
:101EB000D05F000ED15B000E016E6EEF0FF0380E9A
:101EC0000124D96EDA6A040EDA22CCC0E1FFCDC05B
:101ED000E2FFDFCFE7FFCC4BCD2B012A0250015CA4
:101EE000D8A075EF0FF077EF0FF05FEF0FF0D05144
:101EF000D111D8B47EEF0FF080EF0FF0B9EF0FF0F3
:101F000020EE01F03E50D9263F50DA22080EDF6E57
:101F100020EE02F03E50D9263F50DA22380EDE6E17
:101F2000040EDD6E40C0D9FF41C0DAFFDFBC9BEF7D
:101F30000FF09DEF0FF0ABEF0FF03EC0D9FF3FC0A9
:101F4000DAFF480EDF6E3EC0D9FF3FC0DAFF000E59
:101F5000DB8EE2EF0FF03EC0D9FF3FC0DAFF080E84
:101F6000DF6E3EC0D9FF3FC0DAFF000EDB8EE2EF2E
:101F70000FF020EE01F03E50D9263F50DA22080E35
:101F8000DF6E20EE02F03E50D9263F50DA22300EAE
:101F9000DE6E040EDD6E3EC0D9FF3FC0DAFF040ED8
:101FA000DF6E3EC0D9FF3FC0DAFF000EDB8ECF9F51
:101FB0004950D8A4DEEF0FF0E0EF0FF0E2EF0FF0A2
:101FC00071EC14F012000001686F00016051D8B488
:101FD000ECEF0FF0EEEF0FF0FCEF0FF06851020D99
:101FE000DA0EF324D96E000EF420DA6EDECF69F03B
:101FF000DDCF6AF008EF10F06851020DE00EF32417
:10200000D96E000EF420DA6EDECF69F0DDCF6AF013
:1020100069516A11D8A40FEF10F011EF10F017EF0B
:1020200010F0000E606F000E616F83EF10F020EE75
:1020300002F06951D9266A51DA2261C0DEFF62C01E
:10204000DDFF20EE01F06951D9266A51DA2263C022
:10205000DFFF69C0D9FF6AC0DAFF400EDF1669C032
:10206000D9FF6AC0DAFF000EDB8669C0D9FF6AC0FB
:10207000DAFF000EDB8E6051D8B441EF10F043EF71
:1020800010F062EF10F06851020DDA0EF324D96EF1
:10209000000EF420DA6EDECF64F0DDCF65F0040EC2
:1020A0006419666F6551676F6851020DDA0EF3248B
:1020B000D96E000EF420DA6E66C0DEFF67C0DDFF69
:1020C0007FEF10F06851020DE00EF324D96E000E80
:1020D000F420DA6EDECF64F0DDCF65F0040E641913
:1020E000666F6551676F6851020DE00EF324D96E7B
:1020F000000EF420DA6E66C0DEFF67C0DDFF69C047
:1021000060F06AC061F0120060980001D7BF8BEFE9
:1021100010F08DEF10F0D2EF10F0CFAF92EF10F083
:1021200094EF10F0A6EF10F0020E4E6E4550D8A4BA
:102130009CEF10F09EEF10F0A0EF10F0EAEC16F01C
:10214000000E476E000E486E24EF11F020EE01F0F5
:102150003E50D9263F50DA22080EDF6E20EE02F004
:102160003E50D9263F50DA22300EDE6E040EDD6E70
:102170003EC0D9FF3FC0DAFF0C0EDF6E3EC0D9FF74
:102180003FC0DAFF000EDB8EDAC0D9FFDBC0DAFF1A
:10219000040EDF6EDAC0D9FFDBC0DAFF000EDB8E83
:1021A00024EF11F0040130AFD8EF10F0DAEF10F0A7
:1021B000F6EF10F0010E4E6E4650D8A4E2EF10F08C
:1021C000E4EF10F0E6EF10F0EAEC16F0000E476EC8
:1021D000000E486E4950D8A4F0EF10F0F2EF10F066
:1021E00024EF11F071EC14F024EF11F0020E4E6E9A
:1021F00020EE01F03E50D9263F50DA22080EDF6E65
:1022000020EE02F03E50D9263F50DA22300EDE6E2C
:10221000040EDD6E3EC0D9FF3FC0DAFF040EDF6E54
:102220003EC0D9FF3FC0DAFF000EDB8E000E476EC6
:10223000000E486E4950D8A420EF11F022EF11F0A3
:1022400024EF11F0F2EF10F01200096E0150D8B433
:102250002CEF11F02EEF11F03CEF11F00950020DB0
:10226000DA0EF324D96E000EF420DA6EDECF0AF017
:10227000DDCF0BF048EF11F00950020DE00EF32412
:10228000D96E000EF420DA6EDECF0AF0DDCF0BF04F
:102290000A500B10D8A44FEF11F051EF11F057EF87
:1022A00011F0000E016E000E026EC3EF11F020EE71
:1022B00002F00A50D9260B50DA2202C0DEFF03C01A
:1022C000DDFF20EE01F00A50D9260B50DA2204C0BF
:1022D000DFFF0AC0D9FF0BC0DAFF400EDF160AC0CD
:1022E000D9FF0BC0DAFF000EDB860AC0D9FF0BC096
:1022F000DAFF000EDB8E0150D8B481EF11F083EFCE
:1023000011F0A2EF11F00950020DDA0EF324D96E8C
:10231000000EF420DA6EDECF05F0DDCF06F0040EFD
:102320000518076E0650086E0950020DDA0EF324E8
:10233000D96E000EF420DA6E07C0DEFF08C0DDFFA4
:10234000BFEF11F00950020DE00EF324D96E000E1C
:10235000F420DA6EDECF05F0DDCF06F0040E0518AE
:10236000076E0650086E0950020DE00EF324D96E78
:10237000000EF420DA6E07C0DEFF08C0DDFF0AC0E1
:1023800001F00BC002F0120004013039E832030BF7
:102390000009D8B4CEEF11F0D0EF11F01DEF12F01C
:1023A00056EF12F00001D78F080E506E56EF12F064
:1023B00088EC0CF056EF12F0EAEC14F056EF12F045
:1023C000540E0001D46F000ED56FD781010ED86F67
:1023D000D78F56EF12F0DFEC12F056EF12F070ECE0
:1023E00004F056EF12F0510E34250001D46FD56B76
:1023F000000ED523D781010ED86FD78F56EF12F07C
:102400000001D78F510E04013425D96EDA6A000E0F
:10241000DA2232C4DFFF56EF12F0000E0E6E020E0B
:102420000D6E000E0F6E000E106E000E126E000E7E
:10243000116EE2EC17F056EF12F031511C6E1D6A6E
:102440001D50000AD8B427EF12F056EF12F01C50BE
:10245000000AD8B4EBEF11F0010AD8B4EFEF11F095
:10246000020AD8B4EFEF11F0060AD8B4D2EF11F097
:10247000030AD8B4D8EF11F0010AD8B40DEF12F066
:102480000F0AD8B4E0EF11F0010AD8B4DCEF11F074
:10249000030AD8B4F3EF11F0010AD8B400EF12F038
:1024A000070AD8B456EF12F056EF12F01200080ED9
:1024B000016E0001D95107E1080ED85DD8B063EF75
:1024C00012F065EF12F07DEF12F0D8C001F04F501E
:1024D000D8A46DEF12F06FEF12F073EF12F0010E4F
:1024E0004F6E7DEF12F04F04D8A479EF12F07BEF1E
:1024F00012F07DEF12F0020E4F6E0150D85F000E09
:10250000D95B20EE01F0DA51D926DB51DA2201C085
:10251000DFFF380E3C6E040E3D6ED7B192EF12F025
:1025200094EF12F0D6EF12F0B1EF12F0D4C0F6FF34
:10253000D5C0F7FFF86A3CC0D9FF3DC0DAFF070EEF
:10254000F76403D00800F55005D0F6CFE9FFF7CFC8
:10255000EAFFEF50DF6E0001D44BD52B3C4A3D2AF9
:1025600001060150D8A4B7EF12F0B9EF12F096EFC0
:1025700012F0DEEF12F0D4C0F6FFD5C0F7FFF86A14
:102580003CC0D9FF3DC0DAFF070EF76403D0080056
:10259000F55005D0F6CFE9FFF7CFEAFFEF50DF6E39
:1025A0000001D44BD52B3C4A3D2A01060150D8A44A
:1025B000DCEF12F0DEEF12F0BBEF12F01200000EB3
:1025C0000401386F000E396F3CEF13F00001D78F14
:1025D0004D04D8A4EEEF12F0F0EF12F056EF13F026
:1025E0000401388356EF13F00001D78F56EF13F034
:1025F0000001D78F040134BF00EF13F002EF13F096
:1026000013EF13F034510F0B016E0150020DE00E69
:10261000F324D96E000EF420DA6EDECF03F0DDCFA6
:1026200004F022EF13F034510F0B016E0150020D34
:10263000DA0EF324D96E000EF420DA6EDECF03F04A
:10264000DDCF04F003C0D9FF04C0DAFFDFAE2BEF0B
:1026500013F02DEF13F056EF13F003C0D9FF04C0B1
:10266000DAFFDFA436EF13F038EF13F056EF13F074
:10267000010E386F56EF13F030511F0B016E026AD6
:102680000250000AD8B447EF13F056EF13F0015090
:10269000000AD8B4E6EF12F0010AD8B4F4EF12F051
:1026A000030AD8B4F8EF12F056EF13F00001D7AFD9
:1026B0005CEF13F05EEF13F065EF13F0380ED46F9C
:1026C000040ED56FD781020ED86F1200040130516D
:1026D0001F0BE806D8B46FEF13F071EF13F073EF30
:1026E00013F0EBEF13F03039E832030BE806D8B4FF
:1026F0007CEF13F07EEF13F080EF13F0EBEF13F0AD
:102700003451D8B486EF13F088EF13F0CAEF13F00A
:102710003405D8B48EEF13F090EF13F0CAEF13F036
:10272000EBEF13F0520E0001D46F010ED56F000EC7
:10273000D96F080ED86FD781D78FEBEF13F0520EF9
:102740000001D46F010ED56FD78FEBEF13F036C4B5
:10275000D0F037C4D1F05A0E0001CC6F010ECD6F0E
:10276000000ED26F000ED36FCF8FEBEF13F05A0E27
:102770000001D46F010ED56F000ED96F070ED86F10
:10278000C10ED76FEBEF13F032C442F00001D78FC8
:10279000EBEF13F03151016E026A0250000AD8B417
:1027A000D4EF13F0EBEF13F00150000AD8B492EF1E
:1027B00013F0010AD8B49FEF13F0210AD8B4A7EFA1
:1027C00013F0010AD8B4B7EF13F0030AD8B4C4EF7A
:1027D00013F0EBEF13F01200DAC0D9FFDBC0DAFF21
:1027E0000001000EDFBC010E026E040EDA19DA6F72
:1027F000DB51DB6F080E5018D8A401EF14F003EF83
:1028000014F015EF14F0040132517F0B636E635026
:10281000D8B40DEF14F00FEF14F013EF14F0100E06
:10282000506E15EF14F0040E506E4E04D8A41BEF3A
:1028300014F01DEF14F065EF14F0000120EE02F02B
:10284000DA51D926DB51DA22380EDE6E040EDD6E47
:1028500057EC12F0020E4F18D8A431EF14F033EFFA
:1028600014F041EF14F0DAC0D9FFDBC0DAFF040E38
:10287000DF6EDAC0D9FFDBC0DAFF000EDB8E70EF4F
:1028800014F00250D8A447EF14F049EF14F057EFBA
:1028900014F0DAC0D9FFDBC0DAFF480EDF6EDAC011
:1028A000D9FFDBC0DAFF000EDB8E70EF14F0DAC068
:1028B000D9FFDBC0DAFF080EDF6EDAC0D9FFDBC05C
:1028C000DAFF000EDB8E70EF14F00001CFAF6BEF7C
:1028D00014F06DEF14F06EEF14F0CF9F000E4E6EFB
:1028E00012004850D8A477EF14F079EF14F0E9EF14
:1028F00014F0010E486E4750D8A481EF14F083EF16
:1029000014F0E9EF14F0010E476E020E4E18D8A431
:102910008CEF14F08EEF14F0A5EF14F0000120EE10
:1029200001F0DA51D926DB51DA22000EDF6EDAC06F
:10293000D9FFDBC0DAFF480EDF6EDAC0D9FFDBC09B
:10294000DAFF000EDB8EE9EF14F04E04D8A4ABEFF3
:1029500014F0ADEF14F0E9EF14F0000E4B6E20EE22
:1029600001F04050D9264150DA22080EDF6E20EEE9
:1029700002F04050D9264150DA22300EDE6E040EAD
:10298000DD6E40C0D9FF41C0DAFF040EDF6E40C0EB
:10299000D9FF41C0DAFF000EDB8E010E4B6E20EE38
:1029A00001F03E50D9263F50DA22080EDF6E20EEAD
:1029B00002F03E50D9263F50DA22300EDE6E040E71
:1029C000DD6E3EC0D9FF3FC0DAFF800EDF6EE9EF5B
:1029D00014F012000001D78F6B0E016E0F0E026E05
:1029E000000E046E000E036E000E066E020E056EE3
:1029F000CDEC0BF0000E016E040E026E000E046EA4
:102A0000000E036E000E066E300E056ECDEC0BF060
:102A1000608C000E156EE90E1524D96EDA6A000E70
:102A2000DA22000EDF6EE60E1524D96EDA6A000E89
:102A3000DA22000EDF6E152A020E156422EF15F061
:102A400024EF15F00BEF15F0510E016E000E026E23
:102A5000000E046E000E036E000E066E020E056E72
:102A6000CDEC0BF0609C080E0001DA6F040EDB6FFA
:102A7000000E406E040E416E40C03EF041C03FF07B
:102A800032C454F05450D8A448EF15F04AEF15F072
:102A90004EEF15F0100E506E5EEF15F0000E0E6E3C
:102AA000010E0D6E540E0F6E000E106E000E126EA3
:102AB000010E116EE2EC17F0200E506E12000001B4
:102AC00062516311D8B467EF15F069EF15F072EF3A
:102AD00015F062516311D8A470EF15F072EF15F084
:102AE00077EF15F06051CCEC1AF0C4EF15F020EE42
:102AF00009F06251D9266351DA22DE50DE10D8B4D3
:102B000084EF15F086EF15F0A1EF15F020EE09F037
:102B10006251D9266351DA2210EE03F06251E126A8
:102B20006351E222DE50E65CE650800A686FDE50B8
:102B3000800A6859D8B09FEF15F0A1EF15F0C4EFE7
:102B400015F020EE03F06251D9266351DA22DECF70
:102B500064F0DDCF65F062C0D9FF63C0DAFFDECF7D
:102B600066F0DDCF67F064516625D96E6551672147
:102B7000DA6E60C0DFFF20EE03F06251D9266351A8
:102B8000DA22DE2A000EDD2212000001EEA1CBEFD8
:102B900015F0CDEF15F0D7EF15F072C069F073C0E6
:102BA0006AF070C06BF071C06CF0A2EC19F000011B
:102BB00075BFDDEF15F0DFEF15F0E5EF15F074C030
:102BC00079F075C07AF0E9EF15F0000E7A6F000E1B
:102BD000796F000E786F000E776FFCEF15F0000E26
:102BE000616F200E606F70C062F071C063F05FECC7
:102BF00015F00001774B782B7951775D7851800A79
:102C0000766F7A51800A7659D8A009EF16F00BEF4B
:102C100016F0EFEF15F0EEB110EF16F012EF16F020
:102C20001CEF16F072C069F073C06AF070C06BF0F0
:102C300071C06CF0A2EC19F072C060F073C061F06A
:102C400048EC1AF0000179516025706F7A516121CA
:102C5000716F1200BFEC1AF0F28EF28C000E956EBE
:102C6000000E0F015E6F000E0101756F070E00016F
:102C7000CB6F170ECA6F6A0EE82EFED7CA2FFCD78D
:102C8000CB2FFAD700F08CAC48EF16F04DEF16F0D2
:102C90000001CA6BCA2B4FEF16F00001CA6BCA3B8A
:102CA000CA47CA478C50CA19BF0BCA198C6E435009
:102CB000D8A45DEF16F05FEF16F088EF16F08CA643
:102CC00064EF16F068EF16F0CA6BCA2B6AEF16F0C5
:102CD0000001CA6BCA47CA47CA478C50CA19F70BCA
:102CE000CA198C6E610EB76F010EB86FD00EB96F36
:102CF000080EBA6F75C1BBF0BC6B2BEC19F001016B
:102D0000752B610E0001606F010E616F60EC18F0B1
:102D100080EC09F036EF16F04EEF00F02D0E4A6E03
:102D200053C01EF0FD0E1E16D8A499EF16F09BEFAF
:102D300016F0DDEF16F053C01EF0D8901E323F0E95
:102D40001E161E50040D000EF324406E040EF420D7
:102D5000416E40C03EF041C03FF0040E3E183E6E52
:102D60003F503F6E40C0D9FF41C0DAFFDF30E8324C
:102D70000F0B0D0AD8A4BFEF16F0C1EF16F0D9EF74
:102D800016F0300E016E040E026E20EE02F040507E
:102D9000D9264150DA22DECF03F0DDCF04F0000E59
:102DA000066E080E056E54EC19F09AEC17F0E9EF78
:102DB00016F026EC18F0E9EF16F05350FD0B040A5C
:102DC000D8A4E5EF16F0E7EF16F0E9EF16F0ECEC1B
:102DD00013F01200000E466E000E456E020E4E18E5
:102DE000D8A4F5EF16F0F7EF16F017EF17F020EE76
:102DF00001F03E50D9263F50DA22080EDF6E20EE59
:102E000002F03E50D9263F50DA22380EDE6E040E14
:102E1000DD6E3EC0D9FF3FC0DAFF480EDF6E3EC018
:102E2000D9FF3FC0DAFF000EDB8E43EF17F0000141
:102E3000D8510401365D0001D95104013759D8B089
:102E400024EF17F026EF17F02AEF17F036C4D8F06A
:102E500037C4D9F057EC12F0000120EE02F0DA513D
:102E6000D926DB51DA22380EDE6E040EDD6EDAC0B2
:102E7000D9FFDBC0DAFF480EDF6EDAC0D9FFDBC056
:102E8000DAFF000EDB8E1200066E000E076E040ED7
:102E9000086E0150026E036AD8900236033606505F
:102EA000046E056AD89004360536D8900436053687
:102EB0000250042603500522D89004360536D890D7
:102EC00004360536045007260550082207C0D9FFEE
:102ED00008C0DAFFDF9E0150D8A471EF17F073EF3E
:102EE00017F081EF17F00650020DE00EF324D96EB3
:102EF000000EF420DA6E07C0DEFF08C0DDFF8DEFA4
:102F000017F00650020DDA0EF324D96E000EF420ED
:102F1000DA6E07C0DEFF08C0DDFF07C0D9FF08C0BA
:102F2000DAFFDF9C20EE04F00750D9260850DA22A1
:102F3000DF8C1200000E4F6E000E496E000E466EC2
:102F4000000E456E000E4B6E000E4E6EDAC0D9FFBD
:102F5000DBC0DAFF7F0EDF16040E0001DA19DA6F2C
:102F6000DB51DB6FDAC0D9FFDBC0DAFF7F0EDF1683
:102F7000040EDA19DA6FDB51DB6F3EC0D9FF3FC0B8
:102F8000DAFF7F0EDF16000ED76F000ED96F000E2E
:102F9000D86F000ECF6F000ED16F000ED06FC4EC53
:102FA00011F0000E0E6E030E0D6E000E0F6E000E71
:102FB000106E000E126E000E116EE2EC17F084EC33
:102FC00010F01200ECEF17F098EC18F025EF18F065
:102FD00066EC13F025EF18F00DC013F00EC014F0DE
:102FE0001450000AD8B4FBEF17F07F0AD8B41EEFD4
:102FF00018F025EF18F01350010AD8B4E4EF17F0D9
:10300000030AD8B425EF18F0010AD8B4E8EF17F096
:10301000060AD8B425EF18F0770AD8B425EF18F0CF
:10302000010AD8B425EF18F0070AD8B425EF18F034
:10303000010AD8B425EF18F025EF18F01350FF0A55
:10304000D8B425EF18F025EF18F01200020E4E1834
:10305000D8A42DEF18F02FEF18F033EF18F041EC53
:103060000FF05FEF18F0000E4E6E4B50D8A43BEF00
:1030700018F03DEF18F05DEF18F020EE01F03E5033
:10308000D9263F50DA22080EDF6E20EE02F03E50C5
:10309000D9263F50DA22300EDE6E040EDD6E3EC0C1
:1030A000D9FF3FC0DAFF0C0EDF6E3EC0D9FF3FC034
:1030B000DAFF000EDB8E5FEF18F0000E4B6E120091
:1030C000A3944350D8B467EF18F069EF18F06CEF91
:1030D00018F0A38497EF18F0000E0001646F60C031
:1030E00062F061C063F0642B6429D8A47AEF18F011
:1030F0007CEF18F07EEF18F08CEF18F062C0D9FF6B
:1031000063C0DAFF624B632BDF50D8A48AEF18F05C
:103110008CEF18F073EF18F060C033F061C034F03A
:1031200064C0F3F0010EF26F010E436EA38412002F
:10313000000E01015A6F4B0E5B6F000E5C6F000EAC
:103140005D6F000E5E6F000E5F6F080E606F000E09
:10315000446E1A0E096E010E7CEC19F01E0E096EFB
:10316000020E7CEC19F0000E016E400E026E050E90
:10317000036E400E046E020E25EC11F001C03AF011
:1031800002C03BF0000E0001F06F000EF16F000E68
:10319000436E1200B1C0B5F0B2C0B6F0000E376E8B
:1031A000000E366EE8EF18F0AFC09FF0B0C0A0F090
:1031B000B50E0001A16F000EA26FB3C0A3F0B4C0A2
:1031C000A4F0A4EC08F000019F513626A05137224C
:1031D000B5C0F6FFB6C0F7FF0800F5500009D8A447
:1031E000F4EF18F0F6EF18F0D4EF18F036C0AFF0A7
:1031F00037C0B0F012006AA000EF19F002EF19F02A
:1032000029EF19F040C0D9FF41C0DAFF800EDE1867
:10321000D8A40DEF19F00FEF19F028EF19F0DAC06C
:10322000D9FFDBC0DAFF840EDE18D8A41AEF19F03C
:103230001CEF19F028EF19F040C0D9FF41C0DAFFA8
:103240000C0EDF6E40C0D9FF41C0DAFF000EDB8EEE
:103250006A90659A1200BB0E0001BD6F000EBE6F32
:10326000B7C0BFF0B8C0C0F0000EC36F000EC26F91
:10327000000EC96F000EC86FBF0EAF6F000EB06FAB
:10328000B9C0B1F0BAC0B2F0BD0EB36F000EB46FEA
:10329000CAEC18F00001C251B725D96EC351B8214C
:1032A000DA6E000EDF6E120003C009F004C00AF0EF
:1032B00001C007F002C008F06EEF19F009C0D9FF95
:1032C0000AC0DAFFDF500B6E094A0A2A07C0D9FF8D
:1032D00008C0DAFF0BC0DFFF074A082A0506D8A09E
:1032E0000606052806E10628D8A479EF19F07BEF39
:1032F00019F05EEF19F012000C6E09A482EF19F0BC
:1033000084EF19F089EF19F0000E016E0C5044ECB7
:1033100017F009A28EEF19F090EF19F095EF19F060
:10332000010E016E0C5044EC17F06A0E0C240A6E6C
:103330000B6A0F0E0B220AC0D9FF0BC0DAFF09C0BF
:10334000DFFF1200000E00016F6F000E6E6FB5EF11
:1033500019F06DC060F0616B6BC062F06CC063F01F
:103360005FEC15F000016E4B6F2B6E516925D96E25
:103370006F516A21DA6EDF506D6F6D51D8A4C3EFC3
:1033800019F0C5EF19F0A9EF19F01200000173BF91
:10339000D4EF19F0735106E17205D8B0D2EF19F0ED
:1033A000D4EF19F0E2EF19F072C074F073C075F049
:1033B000741F751F744B752B74C072F075C073F059
:1033C000E6EF19F072C072F073C073F01200505043
:1033D000D8A4EDEF19F0EFEF19F007EF1AF0000E97
:1033E000606E000E646E160E626E9F0E666E7B0E31
:1033F000646EA584A384FEEF19F0608660A603EFD7
:103400001AF005EF1AF0FDEF19F0010E506E1200E0
:10341000000E0001F56F000E0E6E740E0D6E000EA4
:103420000F6E000E106E000E126E000E116EE2ECAA
:1034300017F0609264941EEF1AF0659465B423EF60
:103440001AF025EF1AF01DEF1AF0000E0001F46FCC
:103450001200000E8D6E000E8C6E000E896E000E36
:103460008A6E000E8B6E070E966E92689368C70E7A
:10347000946E95680F015E69C40E5D6F3C0E5C6FC3
:10348000070E5F6F2F0E5B6F000E856EF18E1200C0
:1034900060C062F061C063F051EF1AF00001604B50
:1034A000612B60C0D9FF61C0DAFFDF50D8A45BEFA9
:1034B0001AF05DEF1AF04EEF1AF000016251605DF4
:1034C000606F63516159616F1200010E2C26000E6E
:1034D0002D222E222F220001F551D8A472EF1AF0CE
:1034E00074EF1AF07EEF1AF0F42BF451D8A47BEFAE
:1034F0001AF07DEF1AF07EEF1AF0F469120001EE77
:1035000000F0610EEE6AE806FDE100EECCF02A0E56
:10351000EE6AE806FDE100EE2CF0290EEE6AE80600
:10352000FDE155905592000EF86E00012AEF16F05D
:10353000648465986082010E0001F56F000EF46FDF
:10354000000E0E6E750E0D6E000E0F6E000E106EDC
:10355000000E126E000E116EE2EC17F01200700EEB
:10356000D36E000ED26E800E9B6E000EB56ED2AE84
:10357000BCEF1AF0BEEF1AF0B7EF1AF01200CAEC67
:103580001AF029EC1AF0AFEC1AF0F5EC0DF0E7ECBC
:0A35900019F01200D09E1200120084
:020000040020DA
:08000000FFFFFFFFFFFFFFFF00
:020000040030CA
:0E0000000328593CFFD381FF0FC00FE00F40D3
:00000001FF
